{
	"_format": "hh-sol-artifact-1",
	"contractName": "Web3Mint",
	"sourceName": "contracts/Web3Mint.sol",
	"abi": [
		{
			"inputs": [],
			"stateMutability": "nonpayable",
			"type": "constructor"
		},
		{
			"anonymous": false,
			"inputs": [
				{
					"indexed": true,
					"internalType": "address",
					"name": "owner",
					"type": "address"
				},
				{
					"indexed": true,
					"internalType": "address",
					"name": "approved",
					"type": "address"
				},
				{
					"indexed": true,
					"internalType": "uint256",
					"name": "tokenId",
					"type": "uint256"
				}
			],
			"name": "Approval",
			"type": "event"
		},
		{
			"anonymous": false,
			"inputs": [
				{
					"indexed": true,
					"internalType": "address",
					"name": "owner",
					"type": "address"
				},
				{
					"indexed": true,
					"internalType": "address",
					"name": "operator",
					"type": "address"
				},
				{
					"indexed": false,
					"internalType": "bool",
					"name": "approved",
					"type": "bool"
				}
			],
			"name": "ApprovalForAll",
			"type": "event"
		},
		{
			"anonymous": false,
			"inputs": [
				{
					"indexed": true,
					"internalType": "address",
					"name": "from",
					"type": "address"
				},
				{
					"indexed": true,
					"internalType": "address",
					"name": "to",
					"type": "address"
				},
				{
					"indexed": true,
					"internalType": "uint256",
					"name": "tokenId",
					"type": "uint256"
				}
			],
			"name": "Transfer",
			"type": "event"
		},
		{
			"inputs": [
				{
					"internalType": "address",
					"name": "to",
					"type": "address"
				},
				{
					"internalType": "uint256",
					"name": "tokenId",
					"type": "uint256"
				}
			],
			"name": "approve",
			"outputs": [],
			"stateMutability": "nonpayable",
			"type": "function"
		},
		{
			"inputs": [
				{
					"internalType": "address",
					"name": "owner",
					"type": "address"
				}
			],
			"name": "balanceOf",
			"outputs": [
				{
					"internalType": "uint256",
					"name": "",
					"type": "uint256"
				}
			],
			"stateMutability": "view",
			"type": "function"
		},
		{
			"inputs": [
				{
					"internalType": "uint256",
					"name": "tokenId",
					"type": "uint256"
				}
			],
			"name": "getApproved",
			"outputs": [
				{
					"internalType": "address",
					"name": "",
					"type": "address"
				}
			],
			"stateMutability": "view",
			"type": "function"
		},
		{
			"inputs": [
				{
					"internalType": "address",
					"name": "owner",
					"type": "address"
				},
				{
					"internalType": "address",
					"name": "operator",
					"type": "address"
				}
			],
			"name": "isApprovedForAll",
			"outputs": [
				{
					"internalType": "bool",
					"name": "",
					"type": "bool"
				}
			],
			"stateMutability": "view",
			"type": "function"
		},
		{
			"inputs": [
				{
					"internalType": "string",
					"name": "name",
					"type": "string"
				},
				{
					"internalType": "string",
					"name": "imageURI",
					"type": "string"
				}
			],
			"name": "mintIpfsNFT",
			"outputs": [],
			"stateMutability": "nonpayable",
			"type": "function"
		},
		{
			"inputs": [],
			"name": "name",
			"outputs": [
				{
					"internalType": "string",
					"name": "",
					"type": "string"
				}
			],
			"stateMutability": "view",
			"type": "function"
		},
		{
			"inputs": [
				{
					"internalType": "uint256",
					"name": "tokenId",
					"type": "uint256"
				}
			],
			"name": "ownerOf",
			"outputs": [
				{
					"internalType": "address",
					"name": "",
					"type": "address"
				}
			],
			"stateMutability": "view",
			"type": "function"
		},
		{
			"inputs": [
				{
					"internalType": "address",
					"name": "from",
					"type": "address"
				},
				{
					"internalType": "address",
					"name": "to",
					"type": "address"
				},
				{
					"internalType": "uint256",
					"name": "tokenId",
					"type": "uint256"
				}
			],
			"name": "safeTransferFrom",
			"outputs": [],
			"stateMutability": "nonpayable",
			"type": "function"
		},
		{
			"inputs": [
				{
					"internalType": "address",
					"name": "from",
					"type": "address"
				},
				{
					"internalType": "address",
					"name": "to",
					"type": "address"
				},
				{
					"internalType": "uint256",
					"name": "tokenId",
					"type": "uint256"
				},
				{
					"internalType": "bytes",
					"name": "data",
					"type": "bytes"
				}
			],
			"name": "safeTransferFrom",
			"outputs": [],
			"stateMutability": "nonpayable",
			"type": "function"
		},
		{
			"inputs": [
				{
					"internalType": "address",
					"name": "operator",
					"type": "address"
				},
				{
					"internalType": "bool",
					"name": "approved",
					"type": "bool"
				}
			],
			"name": "setApprovalForAll",
			"outputs": [],
			"stateMutability": "nonpayable",
			"type": "function"
		},
		{
			"inputs": [
				{
					"internalType": "bytes4",
					"name": "interfaceId",
					"type": "bytes4"
				}
			],
			"name": "supportsInterface",
			"outputs": [
				{
					"internalType": "bool",
					"name": "",
					"type": "bool"
				}
			],
			"stateMutability": "view",
			"type": "function"
		},
		{
			"inputs": [],
			"name": "symbol",
			"outputs": [
				{
					"internalType": "string",
					"name": "",
					"type": "string"
				}
			],
			"stateMutability": "view",
			"type": "function"
		},
		{
			"inputs": [
				{
					"internalType": "uint256",
					"name": "_tokenId",
					"type": "uint256"
				}
			],
			"name": "tokenURI",
			"outputs": [
				{
					"internalType": "string",
					"name": "",
					"type": "string"
				}
			],
			"stateMutability": "view",
			"type": "function"
		},
		{
			"inputs": [
				{
					"internalType": "address",
					"name": "from",
					"type": "address"
				},
				{
					"internalType": "address",
					"name": "to",
					"type": "address"
				},
				{
					"internalType": "uint256",
					"name": "tokenId",
					"type": "uint256"
				}
			],
			"name": "transferFrom",
			"outputs": [],
			"stateMutability": "nonpayable",
			"type": "function"
		}
	],
	"bytecode": "0x60806040523480156200001157600080fd5b506040518060400160405280600381526020017f4e465400000000000000000000000000000000000000000000000000000000008152506040518060400160405280600381526020017f6e6674000000000000000000000000000000000000000000000000000000000081525081600090816200008f91906200043b565b508060019081620000a191906200043b565b505050620000ef6040518060400160405280601881526020017f54686973206973206d79204e465420636f6e74726163742e0000000000000000815250620000f560201b62000a871760201c565b620005d5565b62000195816040516024016200010c9190620005b1565b6040516020818303038152906040527f41304fac000000000000000000000000000000000000000000000000000000007bffffffffffffffffffffffffffffffffffffffffffffffffffffffff19166020820180517bffffffffffffffffffffffffffffffffffffffffffffffffffffffff83818316178352505050506200019860201b60201c565b50565b60008151905060006a636f6e736f6c652e6c6f679050602083016000808483855afa5050505050565b600081519050919050565b7f4e487b7100000000000000000000000000000000000000000000000000000000600052604160045260246000fd5b7f4e487b7100000000000000000000000000000000000000000000000000000000600052602260045260246000fd5b600060028204905060018216806200024357607f821691505b602082108103620002595762000258620001fb565b5b50919050565b60008190508160005260206000209050919050565b60006020601f8301049050919050565b600082821b905092915050565b600060088302620002c37fffffffffffffffffffffffffffffffffffffffffffffffffffffffffffffffff8262000284565b620002cf868362000284565b95508019841693508086168417925050509392505050565b6000819050919050565b6000819050919050565b60006200031c620003166200031084620002e7565b620002f1565b620002e7565b9050919050565b6000819050919050565b6200033883620002fb565b62000350620003478262000323565b84845462000291565b825550505050565b600090565b6200036762000358565b620003748184846200032d565b505050565b5b818110156200039c57620003906000826200035d565b6001810190506200037a565b5050565b601f821115620003eb57620003b5816200025f565b620003c08462000274565b81016020851015620003d0578190505b620003e8620003df8562000274565b83018262000379565b50505b505050565b600082821c905092915050565b60006200041060001984600802620003f0565b1980831691505092915050565b60006200042b8383620003fd565b9150826002028217905092915050565b6200044682620001c1565b67ffffffffffffffff811115620004625762000461620001cc565b5b6200046e82546200022a565b6200047b828285620003a0565b600060209050601f831160018114620004b357600084156200049e578287015190505b620004aa85826200041d565b8655506200051a565b601f198416620004c3866200025f565b60005b82811015620004ed57848901518255600182019150602085019450602081019050620004c6565b868310156200050d578489015162000509601f891682620003fd565b8355505b6001600288020188555050505b505050505050565b600082825260208201905092915050565b60005b838110156200055357808201518184015260208101905062000536565b60008484015250505050565b6000601f19601f8301169050919050565b60006200057d82620001c1565b62000589818562000522565b93506200059b81856020860162000533565b620005a6816200055f565b840191505092915050565b60006020820190508181036000830152620005cd818462000570565b905092915050565b61308980620005e56000396000f3fe608060405234801561001057600080fd5b50600436106100ea5760003560e01c806370a082311161008c578063b88d4fde11610066578063b88d4fde1461025b578063c87b56dd14610277578063e985e9c5146102a7578063eb00195d146102d7576100ea565b806370a08231146101f157806395d89b4114610221578063a22cb4651461023f576100ea565b8063095ea7b3116100c8578063095ea7b31461016d57806323b872dd1461018957806342842e0e146101a55780636352211e146101c1576100ea565b806301ffc9a7146100ef57806306fdde031461011f578063081812fc1461013d575b600080fd5b61010960048036038101906101049190611bc6565b6102f3565b6040516101169190611c0e565b60405180910390f35b6101276103d5565b6040516101349190611cb9565b60405180910390f35b61015760048036038101906101529190611d11565b610467565b6040516101649190611d7f565b60405180910390f35b61018760048036038101906101829190611dc6565b6104ad565b005b6101a3600480360381019061019e9190611e06565b6105c4565b005b6101bf60048036038101906101ba9190611e06565b610624565b005b6101db60048036038101906101d69190611d11565b610644565b6040516101e89190611d7f565b60405180910390f35b61020b60048036038101906102069190611e59565b6106ca565b6040516102189190611e95565b60405180910390f35b610229610781565b6040516102369190611cb9565b60405180910390f35b61025960048036038101906102549190611edc565b610813565b005b61027560048036038101906102709190612051565b610829565b005b610291600480360381019061028c9190611d11565b61088b565b60405161029e9190611cb9565b60405180910390f35b6102c160048036038101906102bc91906120d4565b61093b565b6040516102ce9190611c0e565b60405180910390f35b6102f160048036038101906102ec91906121b5565b6109cf565b005b60007f80ac58cd000000000000000000000000000000000000000000000000000000007bffffffffffffffffffffffffffffffffffffffffffffffffffffffff1916827bffffffffffffffffffffffffffffffffffffffffffffffffffffffff191614806103be57507f5b5e139f000000000000000000000000000000000000000000000000000000007bffffffffffffffffffffffffffffffffffffffffffffffffffffffff1916827bffffffffffffffffffffffffffffffffffffffffffffffffffffffff1916145b806103ce57506103cd82610b20565b5b9050919050565b6060600080546103e49061225c565b80601f01602080910402602001604051908101604052809291908181526020018280546104109061225c565b801561045d5780601f106104325761010080835404028352916020019161045d565b820191906000526020600020905b81548152906001019060200180831161044057829003601f168201915b5050505050905090565b600061047282610b8a565b6004600083815260200190815260200160002060009054906101000a900473ffffffffffffffffffffffffffffffffffffffff169050919050565b60006104b882610644565b90508073ffffffffffffffffffffffffffffffffffffffff168373ffffffffffffffffffffffffffffffffffffffff1603610528576040517f08c379a000000000000000000000000000000000000000000000000000000000815260040161051f906122ff565b60405180910390fd5b8073ffffffffffffffffffffffffffffffffffffffff16610547610bd5565b73ffffffffffffffffffffffffffffffffffffffff161480610576575061057581610570610bd5565b61093b565b5b6105b5576040517f08c379a00000000000000000000000000000000000000000000000000000000081526004016105ac90612391565b60405180910390fd5b6105bf8383610bdd565b505050565b6105d56105cf610bd5565b82610c96565b610614576040517f08c379a000000000000000000000000000000000000000000000000000000000815260040161060b90612423565b60405180910390fd5b61061f838383610d2b565b505050565b61063f83838360405180602001604052806000815250610829565b505050565b60008061065083611024565b9050600073ffffffffffffffffffffffffffffffffffffffff168173ffffffffffffffffffffffffffffffffffffffff16036106c1576040517f08c379a00000000000000000000000000000000000000000000000000000000081526004016106b89061248f565b60405180910390fd5b80915050919050565b60008073ffffffffffffffffffffffffffffffffffffffff168273ffffffffffffffffffffffffffffffffffffffff160361073a576040517f08c379a000000000000000000000000000000000000000000000000000000000815260040161073190612521565b60405180910390fd5b600360008373ffffffffffffffffffffffffffffffffffffffff1673ffffffffffffffffffffffffffffffffffffffff168152602001908152602001600020549050919050565b6060600180546107909061225c565b80601f01602080910402602001604051908101604052809291908181526020018280546107bc9061225c565b80156108095780601f106107de57610100808354040283529160200191610809565b820191906000526020600020905b8154815290600101906020018083116107ec57829003601f168201915b5050505050905090565b61082561081e610bd5565b8383611061565b5050565b61083a610834610bd5565b83610c96565b610879576040517f08c379a000000000000000000000000000000000000000000000000000000000815260040161087090612423565b60405180910390fd5b610885848484846111cd565b50505050565b6060600061090b600684815481106108a6576108a5612541565b5b90600052602060002090600202016000016108c085611229565b600686815481106108d4576108d3612541565b5b90600052602060002090600202016001016040516020016108f79392919061279a565b6040516020818303038152906040526112f7565b90506000816040516020016109209190612843565b60405160208183030381529060405290508092505050919050565b6000600560008473ffffffffffffffffffffffffffffffffffffffff1673ffffffffffffffffffffffffffffffffffffffff16815260200190815260200160002060008373ffffffffffffffffffffffffffffffffffffffff1673ffffffffffffffffffffffffffffffffffffffff16815260200190815260200160002060009054906101000a900460ff16905092915050565b60006109db600761148e565b90506109e7338261149c565b600660405180604001604052808581526020018481525090806001815401808255809150506001900390600052602060002090600202016000909190919091506000820151816000019081610a3c91906129fc565b506020820151816001019081610a5291906129fc565b505050610a78604051806060016040528060258152602001612fef6025913982336114ba565b610a826007611559565b505050565b610b1d81604051602401610a9b9190611cb9565b6040516020818303038152906040527f41304fac000000000000000000000000000000000000000000000000000000007bffffffffffffffffffffffffffffffffffffffffffffffffffffffff19166020820180517bffffffffffffffffffffffffffffffffffffffffffffffffffffffff838183161783525050505061156f565b50565b60007f01ffc9a7000000000000000000000000000000000000000000000000000000007bffffffffffffffffffffffffffffffffffffffffffffffffffffffff1916827bffffffffffffffffffffffffffffffffffffffffffffffffffffffff1916149050919050565b610b9381611598565b610bd2576040517f08c379a0000000000000000000000000000000000000000000000000000000008152600401610bc99061248f565b60405180910390fd5b50565b600033905090565b816004600083815260200190815260200160002060006101000a81548173ffffffffffffffffffffffffffffffffffffffff021916908373ffffffffffffffffffffffffffffffffffffffff160217905550808273ffffffffffffffffffffffffffffffffffffffff16610c5083610644565b73ffffffffffffffffffffffffffffffffffffffff167f8c5be1e5ebec7d5bd14f71427d1e84f3dd0314c0f7b2291e5b200ac8c7c3b92560405160405180910390a45050565b600080610ca283610644565b90508073ffffffffffffffffffffffffffffffffffffffff168473ffffffffffffffffffffffffffffffffffffffff161480610ce45750610ce3818561093b565b5b80610d2257508373ffffffffffffffffffffffffffffffffffffffff16610d0a84610467565b73ffffffffffffffffffffffffffffffffffffffff16145b91505092915050565b8273ffffffffffffffffffffffffffffffffffffffff16610d4b82610644565b73ffffffffffffffffffffffffffffffffffffffff1614610da1576040517f08c379a0000000000000000000000000000000000000000000000000000000008152600401610d9890612b40565b60405180910390fd5b600073ffffffffffffffffffffffffffffffffffffffff168273ffffffffffffffffffffffffffffffffffffffff1603610e10576040517f08c379a0000000000000000000000000000000000000000000000000000000008152600401610e0790612bd2565b60405180910390fd5b610e1d83838360016115d9565b8273ffffffffffffffffffffffffffffffffffffffff16610e3d82610644565b73ffffffffffffffffffffffffffffffffffffffff1614610e93576040517f08c379a0000000000000000000000000000000000000000000000000000000008152600401610e8a90612b40565b60405180910390fd5b6004600082815260200190815260200160002060006101000a81549073ffffffffffffffffffffffffffffffffffffffff02191690556001600360008573ffffffffffffffffffffffffffffffffffffffff1673ffffffffffffffffffffffffffffffffffffffff168152602001908152602001600020600082825403925050819055506001600360008473ffffffffffffffffffffffffffffffffffffffff1673ffffffffffffffffffffffffffffffffffffffff16815260200190815260200160002060008282540192505081905550816002600083815260200190815260200160002060006101000a81548173ffffffffffffffffffffffffffffffffffffffff021916908373ffffffffffffffffffffffffffffffffffffffff160217905550808273ffffffffffffffffffffffffffffffffffffffff168473ffffffffffffffffffffffffffffffffffffffff167fddf252ad1be2c89b69c2b068fc378daa952ba7f163c4a11628f55a4df523b3ef60405160405180910390a461101f83838360016115df565b505050565b60006002600083815260200190815260200160002060009054906101000a900473ffffffffffffffffffffffffffffffffffffffff169050919050565b8173ffffffffffffffffffffffffffffffffffffffff168373ffffffffffffffffffffffffffffffffffffffff16036110cf576040517f08c379a00000000000000000000000000000000000000000000000000000000081526004016110c690612c3e565b60405180910390fd5b80600560008573ffffffffffffffffffffffffffffffffffffffff1673ffffffffffffffffffffffffffffffffffffffff16815260200190815260200160002060008473ffffffffffffffffffffffffffffffffffffffff1673ffffffffffffffffffffffffffffffffffffffff16815260200190815260200160002060006101000a81548160ff0219169083151502179055508173ffffffffffffffffffffffffffffffffffffffff168373ffffffffffffffffffffffffffffffffffffffff167f17307eab39ab6107e8899845ad3d59bd9653f200f220920489ca2b5937696c31836040516111c09190611c0e565b60405180910390a3505050565b6111d8848484610d2b565b6111e4848484846115e5565b611223576040517f08c379a000000000000000000000000000000000000000000000000000000000815260040161121a90612cd0565b60405180910390fd5b50505050565b6060600060016112388461176c565b01905060008167ffffffffffffffff81111561125757611256611f26565b5b6040519080825280601f01601f1916602001820160405280156112895781602001600182028036833780820191505090505b509050600082602001820190505b6001156112ec578080600190039150507f3031323334353637383961626364656600000000000000000000000000000000600a86061a8153600a85816112e0576112df612cf0565b5b04945060008503611297575b819350505050919050565b60606000825190506000810361131f5760405180602001604052806000815250915050611489565b600060036002836113309190612d4e565b61133a9190612d82565b60046113469190612db3565b905060006020826113579190612d4e565b67ffffffffffffffff8111156113705761136f611f26565b5b6040519080825280601f01601f1916602001820160405280156113a25781602001600182028036833780820191505090505b5090506000604051806060016040528060408152602001613014604091399050600181016020830160005b868110156114465760038101905062ffffff818a015116603f8160121c168401518060081b905060ff603f83600c1c1686015116810190508060081b905060ff603f8360061c1686015116810190508060081b905060ff603f831686015116810190508060e01b905080845260048401935050506113cd565b50600386066001811461146057600281146114705761147b565b613d3d60f01b600283035261147b565b603d60f81b60018303525b508484525050819450505050505b919050565b600081600001549050919050565b6114b68282604051806020016040528060008152506118bf565b5050565b6115548383836040516024016114d293929190612df5565b6040516020818303038152906040527f1c7ec448000000000000000000000000000000000000000000000000000000007bffffffffffffffffffffffffffffffffffffffffffffffffffffffff19166020820180517bffffffffffffffffffffffffffffffffffffffffffffffffffffffff838183161783525050505061156f565b505050565b6001816000016000828254019250508190555050565b60008151905060006a636f6e736f6c652e6c6f679050602083016000808483855afa5050505050565b60008073ffffffffffffffffffffffffffffffffffffffff166115ba83611024565b73ffffffffffffffffffffffffffffffffffffffff1614159050919050565b50505050565b50505050565b60006116068473ffffffffffffffffffffffffffffffffffffffff1661191a565b1561175f578373ffffffffffffffffffffffffffffffffffffffff1663150b7a0261162f610bd5565b8786866040518563ffffffff1660e01b81526004016116519493929190612e88565b6020604051808303816000875af192505050801561168d57506040513d601f19601f8201168201806040525081019061168a9190612ee9565b60015b61170f573d80600081146116bd576040519150601f19603f3d011682016040523d82523d6000602084013e6116c2565b606091505b506000815103611707576040517f08c379a00000000000000000000000000000000000000000000000000000000081526004016116fe90612cd0565b60405180910390fd5b805181602001fd5b63150b7a0260e01b7bffffffffffffffffffffffffffffffffffffffffffffffffffffffff1916817bffffffffffffffffffffffffffffffffffffffffffffffffffffffff191614915050611764565b600190505b949350505050565b600080600090507a184f03e93ff9f4daa797ed6e38ed64bf6a1f01000000000000000083106117ca577a184f03e93ff9f4daa797ed6e38ed64bf6a1f01000000000000000083816117c0576117bf612cf0565b5b0492506040810190505b6d04ee2d6d415b85acef81000000008310611807576d04ee2d6d415b85acef810000000083816117fd576117fc612cf0565b5b0492506020810190505b662386f26fc10000831061183657662386f26fc10000838161182c5761182b612cf0565b5b0492506010810190505b6305f5e100831061185f576305f5e100838161185557611854612cf0565b5b0492506008810190505b612710831061188457612710838161187a57611879612cf0565b5b0492506004810190505b606483106118a7576064838161189d5761189c612cf0565b5b0492506002810190505b600a83106118b6576001810190505b80915050919050565b6118c9838361193d565b6118d660008484846115e5565b611915576040517f08c379a000000000000000000000000000000000000000000000000000000000815260040161190c90612cd0565b60405180910390fd5b505050565b6000808273ffffffffffffffffffffffffffffffffffffffff163b119050919050565b600073ffffffffffffffffffffffffffffffffffffffff168273ffffffffffffffffffffffffffffffffffffffff16036119ac576040517f08c379a00000000000000000000000000000000000000000000000000000000081526004016119a390612f62565b60405180910390fd5b6119b581611598565b156119f5576040517f08c379a00000000000000000000000000000000000000000000000000000000081526004016119ec90612fce565b60405180910390fd5b611a036000838360016115d9565b611a0c81611598565b15611a4c576040517f08c379a0000000000000000000000000000000000000000000000000000000008152600401611a4390612fce565b60405180910390fd5b6001600360008473ffffffffffffffffffffffffffffffffffffffff1673ffffffffffffffffffffffffffffffffffffffff16815260200190815260200160002060008282540192505081905550816002600083815260200190815260200160002060006101000a81548173ffffffffffffffffffffffffffffffffffffffff021916908373ffffffffffffffffffffffffffffffffffffffff160217905550808273ffffffffffffffffffffffffffffffffffffffff16600073ffffffffffffffffffffffffffffffffffffffff167fddf252ad1be2c89b69c2b068fc378daa952ba7f163c4a11628f55a4df523b3ef60405160405180910390a4611b566000838360016115df565b5050565b6000604051905090565b600080fd5b600080fd5b60007fffffffff0000000000000000000000000000000000000000000000000000000082169050919050565b611ba381611b6e565b8114611bae57600080fd5b50565b600081359050611bc081611b9a565b92915050565b600060208284031215611bdc57611bdb611b64565b5b6000611bea84828501611bb1565b91505092915050565b60008115159050919050565b611c0881611bf3565b82525050565b6000602082019050611c236000830184611bff565b92915050565b600081519050919050565b600082825260208201905092915050565b60005b83811015611c63578082015181840152602081019050611c48565b60008484015250505050565b6000601f19601f8301169050919050565b6000611c8b82611c29565b611c958185611c34565b9350611ca5818560208601611c45565b611cae81611c6f565b840191505092915050565b60006020820190508181036000830152611cd38184611c80565b905092915050565b6000819050919050565b611cee81611cdb565b8114611cf957600080fd5b50565b600081359050611d0b81611ce5565b92915050565b600060208284031215611d2757611d26611b64565b5b6000611d3584828501611cfc565b91505092915050565b600073ffffffffffffffffffffffffffffffffffffffff82169050919050565b6000611d6982611d3e565b9050919050565b611d7981611d5e565b82525050565b6000602082019050611d946000830184611d70565b92915050565b611da381611d5e565b8114611dae57600080fd5b50565b600081359050611dc081611d9a565b92915050565b60008060408385031215611ddd57611ddc611b64565b5b6000611deb85828601611db1565b9250506020611dfc85828601611cfc565b9150509250929050565b600080600060608486031215611e1f57611e1e611b64565b5b6000611e2d86828701611db1565b9350506020611e3e86828701611db1565b9250506040611e4f86828701611cfc565b9150509250925092565b600060208284031215611e6f57611e6e611b64565b5b6000611e7d84828501611db1565b91505092915050565b611e8f81611cdb565b82525050565b6000602082019050611eaa6000830184611e86565b92915050565b611eb981611bf3565b8114611ec457600080fd5b50565b600081359050611ed681611eb0565b92915050565b60008060408385031215611ef357611ef2611b64565b5b6000611f0185828601611db1565b9250506020611f1285828601611ec7565b9150509250929050565b600080fd5b600080fd5b7f4e487b7100000000000000000000000000000000000000000000000000000000600052604160045260246000fd5b611f5e82611c6f565b810181811067ffffffffffffffff82111715611f7d57611f7c611f26565b5b80604052505050565b6000611f90611b5a565b9050611f9c8282611f55565b919050565b600067ffffffffffffffff821115611fbc57611fbb611f26565b5b611fc582611c6f565b9050602081019050919050565b82818337600083830152505050565b6000611ff4611fef84611fa1565b611f86565b9050828152602081018484840111156120105761200f611f21565b5b61201b848285611fd2565b509392505050565b600082601f83011261203857612037611f1c565b5b8135612048848260208601611fe1565b91505092915050565b6000806000806080858703121561206b5761206a611b64565b5b600061207987828801611db1565b945050602061208a87828801611db1565b935050604061209b87828801611cfc565b925050606085013567ffffffffffffffff8111156120bc576120bb611b69565b5b6120c887828801612023565b91505092959194509250565b600080604083850312156120eb576120ea611b64565b5b60006120f985828601611db1565b925050602061210a85828601611db1565b9150509250929050565b600067ffffffffffffffff82111561212f5761212e611f26565b5b61213882611c6f565b9050602081019050919050565b600061215861215384612114565b611f86565b90508281526020810184848401111561217457612173611f21565b5b61217f848285611fd2565b509392505050565b600082601f83011261219c5761219b611f1c565b5b81356121ac848260208601612145565b91505092915050565b600080604083850312156121cc576121cb611b64565b5b600083013567ffffffffffffffff8111156121ea576121e9611b69565b5b6121f685828601612187565b925050602083013567ffffffffffffffff81111561221757612216611b69565b5b61222385828601612187565b9150509250929050565b7f4e487b7100000000000000000000000000000000000000000000000000000000600052602260045260246000fd5b6000600282049050600182168061227457607f821691505b6020821081036122875761228661222d565b5b50919050565b7f4552433732313a20617070726f76616c20746f2063757272656e74206f776e6560008201527f7200000000000000000000000000000000000000000000000000000000000000602082015250565b60006122e9602183611c34565b91506122f48261228d565b604082019050919050565b60006020820190508181036000830152612318816122dc565b9050919050565b7f4552433732313a20617070726f76652063616c6c6572206973206e6f7420746f60008201527f6b656e206f776e6572206f7220617070726f76656420666f7220616c6c000000602082015250565b600061237b603d83611c34565b91506123868261231f565b604082019050919050565b600060208201905081810360008301526123aa8161236e565b9050919050565b7f4552433732313a2063616c6c6572206973206e6f7420746f6b656e206f776e6560008201527f72206f7220617070726f76656400000000000000000000000000000000000000602082015250565b600061240d602d83611c34565b9150612418826123b1565b604082019050919050565b6000602082019050818103600083015261243c81612400565b9050919050565b7f4552433732313a20696e76616c696420746f6b656e2049440000000000000000600082015250565b6000612479601883611c34565b915061248482612443565b602082019050919050565b600060208201905081810360008301526124a88161246c565b9050919050565b7f4552433732313a2061646472657373207a65726f206973206e6f74206120766160008201527f6c6964206f776e65720000000000000000000000000000000000000000000000602082015250565b600061250b602983611c34565b9150612516826124af565b604082019050919050565b6000602082019050818103600083015261253a816124fe565b9050919050565b7f4e487b7100000000000000000000000000000000000000000000000000000000600052603260045260246000fd5b600081905092915050565b7f7b226e616d65223a202200000000000000000000000000000000000000000000600082015250565b60006125b1600a83612570565b91506125bc8261257b565b600a82019050919050565b60008190508160005260206000209050919050565b600081546125e98161225c565b6125f38186612570565b9450600182166000811461260e576001811461262357612656565b60ff1983168652811515820286019350612656565b61262c856125c7565b60005b8381101561264e5781548189015260018201915060208101905061262f565b838801955050505b50505092915050565b7f202d2d204e465420233a20000000000000000000000000000000000000000000600082015250565b6000612695600b83612570565b91506126a08261265f565b600b82019050919050565b60006126b682611c29565b6126c08185612570565b93506126d0818560208601611c45565b80840191505092915050565b7f222c20226465736372697074696f6e223a2022416e2065706963204e4654222c60008201527f2022696d616765223a2022697066733a2f2f0000000000000000000000000000602082015250565b6000612738603283612570565b9150612743826126dc565b603282019050919050565b7f227d000000000000000000000000000000000000000000000000000000000000600082015250565b6000612784600283612570565b915061278f8261274e565b600282019050919050565b60006127a5826125a4565b91506127b182866125dc565b91506127bc82612688565b91506127c882856126ab565b91506127d38261272b565b91506127df82846125dc565b91506127ea82612777565b9150819050949350505050565b7f646174613a6170706c69636174696f6e2f6a736f6e3b6261736536342c000000600082015250565b600061282d601d83612570565b9150612838826127f7565b601d82019050919050565b600061284e82612820565b915061285a82846126ab565b915081905092915050565b60006020601f8301049050919050565b600082821b905092915050565b6000600883026128b27fffffffffffffffffffffffffffffffffffffffffffffffffffffffffffffffff82612875565b6128bc8683612875565b95508019841693508086168417925050509392505050565b6000819050919050565b60006128f96128f46128ef84611cdb565b6128d4565b611cdb565b9050919050565b6000819050919050565b612913836128de565b61292761291f82612900565b848454612882565b825550505050565b600090565b61293c61292f565b61294781848461290a565b505050565b5b8181101561296b57612960600082612934565b60018101905061294d565b5050565b601f8211156129b057612981816125c7565b61298a84612865565b81016020851015612999578190505b6129ad6129a585612865565b83018261294c565b50505b505050565b600082821c905092915050565b60006129d3600019846008026129b5565b1980831691505092915050565b60006129ec83836129c2565b9150826002028217905092915050565b612a0582611c29565b67ffffffffffffffff811115612a1e57612a1d611f26565b5b612a28825461225c565b612a3382828561296f565b600060209050601f831160018114612a665760008415612a54578287015190505b612a5e85826129e0565b865550612ac6565b601f198416612a74866125c7565b60005b82811015612a9c57848901518255600182019150602085019450602081019050612a77565b86831015612ab95784890151612ab5601f8916826129c2565b8355505b6001600288020188555050505b505050505050565b7f4552433732313a207472616e736665722066726f6d20696e636f72726563742060008201527f6f776e6572000000000000000000000000000000000000000000000000000000602082015250565b6000612b2a602583611c34565b9150612b3582612ace565b604082019050919050565b60006020820190508181036000830152612b5981612b1d565b9050919050565b7f4552433732313a207472616e7366657220746f20746865207a65726f2061646460008201527f7265737300000000000000000000000000000000000000000000000000000000602082015250565b6000612bbc602483611c34565b9150612bc782612b60565b604082019050919050565b60006020820190508181036000830152612beb81612baf565b9050919050565b7f4552433732313a20617070726f766520746f2063616c6c657200000000000000600082015250565b6000612c28601983611c34565b9150612c3382612bf2565b602082019050919050565b60006020820190508181036000830152612c5781612c1b565b9050919050565b7f4552433732313a207472616e7366657220746f206e6f6e20455243373231526560008201527f63656976657220696d706c656d656e7465720000000000000000000000000000602082015250565b6000612cba603283611c34565b9150612cc582612c5e565b604082019050919050565b60006020820190508181036000830152612ce981612cad565b9050919050565b7f4e487b7100000000000000000000000000000000000000000000000000000000600052601260045260246000fd5b7f4e487b7100000000000000000000000000000000000000000000000000000000600052601160045260246000fd5b6000612d5982611cdb565b9150612d6483611cdb565b9250828201905080821115612d7c57612d7b612d1f565b5b92915050565b6000612d8d82611cdb565b9150612d9883611cdb565b925082612da857612da7612cf0565b5b828204905092915050565b6000612dbe82611cdb565b9150612dc983611cdb565b9250828202612dd781611cdb565b91508282048414831517612dee57612ded612d1f565b5b5092915050565b60006060820190508181036000830152612e0f8186611c80565b9050612e1e6020830185611e86565b612e2b6040830184611d70565b949350505050565b600081519050919050565b600082825260208201905092915050565b6000612e5a82612e33565b612e648185612e3e565b9350612e74818560208601611c45565b612e7d81611c6f565b840191505092915050565b6000608082019050612e9d6000830187611d70565b612eaa6020830186611d70565b612eb76040830185611e86565b8181036060830152612ec98184612e4f565b905095945050505050565b600081519050612ee381611b9a565b92915050565b600060208284031215612eff57612efe611b64565b5b6000612f0d84828501612ed4565b91505092915050565b7f4552433732313a206d696e7420746f20746865207a65726f2061646472657373600082015250565b6000612f4c602083611c34565b9150612f5782612f16565b602082019050919050565b60006020820190508181036000830152612f7b81612f3f565b9050919050565b7f4552433732313a20746f6b656e20616c7265616479206d696e74656400000000600082015250565b6000612fb8601c83611c34565b9150612fc382612f82565b602082019050919050565b60006020820190508181036000830152612fe781612fab565b905091905056fe416e204e465420772f20494420257320686173206265656e206d696e74656420746f2025734142434445464748494a4b4c4d4e4f505152535455565758595a6162636465666768696a6b6c6d6e6f707172737475767778797a303132333435363738392b2fa26469706673582212206a2ef48bcc25f21b2bd8e7ca45dad40af8c5b3dcb7a8ece85a4554e937b1bcb964736f6c63430008120033",
	"linkReferences": {},
	"deployedLinkReferences": {}
}